{
  "contractName": "KittyFactory",
  "abi": [
    {
      "anonymous": false,
      "inputs": [
        {
          "indexed": false,
          "internalType": "address",
          "name": "owner",
          "type": "address"
        },
        {
          "indexed": false,
          "internalType": "uint256",
          "name": "kittyId",
          "type": "uint256"
        },
        {
          "indexed": false,
          "internalType": "uint256",
          "name": "mumId",
          "type": "uint256"
        },
        {
          "indexed": false,
          "internalType": "uint256",
          "name": "dadId",
          "type": "uint256"
        },
        {
          "indexed": false,
          "internalType": "uint256",
          "name": "genes",
          "type": "uint256"
        }
      ],
      "name": "Birth",
      "type": "event"
    },
    {
      "anonymous": false,
      "inputs": [
        {
          "indexed": false,
          "internalType": "address",
          "name": "from",
          "type": "address"
        },
        {
          "indexed": false,
          "internalType": "address",
          "name": "to",
          "type": "address"
        },
        {
          "indexed": false,
          "internalType": "uint256",
          "name": "tokenId",
          "type": "uint256"
        }
      ],
      "name": "Transfer",
      "type": "event"
    },
    {
      "constant": true,
      "inputs": [
        {
          "internalType": "uint256",
          "name": "",
          "type": "uint256"
        }
      ],
      "name": "kittyIndexToApproved",
      "outputs": [
        {
          "internalType": "address",
          "name": "",
          "type": "address"
        }
      ],
      "payable": false,
      "stateMutability": "view",
      "type": "function"
    },
    {
      "constant": true,
      "inputs": [
        {
          "internalType": "uint256",
          "name": "",
          "type": "uint256"
        }
      ],
      "name": "kittyIndexToOwner",
      "outputs": [
        {
          "internalType": "address",
          "name": "",
          "type": "address"
        }
      ],
      "payable": false,
      "stateMutability": "view",
      "type": "function"
    }
  ],
  "bytecode": "0x608060405234801561001057600080fd5b50610119806100206000396000f3fe6080604052348015600f57600080fd5b506004361060325760003560e01c8063481af3d3146037578063a45f4bfc14607a575b600080fd5b605160048036036020811015604b57600080fd5b50356094565b6040805173ffffffffffffffffffffffffffffffffffffffff9092168252519081900360200190f35b605160048036036020811015608e57600080fd5b503560bc565b60036020526000908152604090205473ffffffffffffffffffffffffffffffffffffffff1681565b60016020526000908152604090205473ffffffffffffffffffffffffffffffffffffffff168156fea265627a7a7231582067239baea2387102dde770f8c055caf64e245b5e70d2e5c8e48120ca63cffb8964736f6c634300050c0032",
  "source": "pragma solidity ^0.5.0;\n\ncontract KittyFactory {\n\n  /*\n  *   A new cat is born\n  */\n  event Birth(address owner, uint256 kittyId, uint256 mumId, uint256 dadId, uint256 genes);\n\n  /*\n  *   A cat has been transfer\n  */\n  event Transfer(address from, address to, uint256 tokenId);\n\n  /*\n  *   Here we will use the same structure as the original crypto kitties game\n  *   As it fit exactly into two bit words\n  */\n  struct Kitty {\n\n      uint256 genes;\n      uint64 birthTime;\n      uint32 mumId;\n      uint32 dadId;\n      uint16 generation;\n  }\n\n  Kitty[] kitties;\n\n  mapping (uint256 => address) public kittyIndexToOwner;\n  mapping (address => uint256) ownershipTokenCount;\n\n  // Add a list of approved kitties, that are allowed to be transfered\n  mapping (uint256 => address) public kittyIndexToApproved;\n\n  function _createKitty(\n      uint256 _mumId,\n      uint256 _dadId,\n      uint256 _generation,\n      uint256 _genes,\n      address _owner\n  )\n      internal\n      returns (uint)\n  {\n\n    Kitty memory _kitty = Kitty({\n        genes: _genes,\n        birthTime: uint64(now),\n        mumId: uint32(_mumId),\n        dadId: uint32(_dadId),\n        generation: uint16(_generation)\n    });\n\n    uint256 newKittenId = kitties.push(_kitty) - 1;\n\n    // It's probably never going to happen, 4 billion cats is A LOT, but\n    // let's just be 100% sure we never let this happen.\n    require(newKittenId == uint256(uint32(newKittenId)));\n\n    // emit the birth event\n    emit Birth(\n        _owner,\n        newKittenId,\n        uint256(_kitty.mumId),\n        uint256(_kitty.dadId),\n        _kitty.genes\n    );\n\n    // This will assign ownership, and also emit the Transfer event as\n    // per ERC721 draft\n    _transfer(address(0), _owner, newKittenId);\n    return newKittenId;\n  }\n\n  function _transfer(address _from, address _to, uint256 _tokenId) internal {\n\n    // Since the number of kittens is capped to 2^32 we can't overflow this\n    ownershipTokenCount[_to]++;\n    // transfer ownership\n    kittyIndexToOwner[_tokenId] = _to;\n\n    if (_from != address(0)) {\n        ownershipTokenCount[_from]--;\n\n        delete kittyIndexToApproved[_tokenId];\n    }\n\n    // Emit the transfer event.\n    emit Transfer(_from, _to, _tokenId);\n  }\n}\n",
  "sourcePath": "/Users/user/Documents/GitHub/CryptoFishFinal/contracts/KittyFactory.sol",
  "compiler": {
    "name": "solc",
    "version": "0.5.12+commit.7709ece9.Emscripten.clang"
  },
  "schemaVersion": "3.4.4",
  "updatedAt": "2022-01-09T06:04:03.017Z",
  "devdoc": {
    "methods": {}
  },
  "userdoc": {
    "methods": {}
  }
}