{
  "contractName": "KittyOwnership",
  "abi": [
    {
      "anonymous": false,
      "inputs": [
        {
          "indexed": false,
          "internalType": "address",
          "name": "owner",
          "type": "address"
        },
        {
          "indexed": false,
          "internalType": "address",
          "name": "approved",
          "type": "address"
        },
        {
          "indexed": false,
          "internalType": "uint256",
          "name": "tokenId",
          "type": "uint256"
        }
      ],
      "name": "Approval",
      "type": "event"
    },
    {
      "anonymous": false,
      "inputs": [
        {
          "indexed": false,
          "internalType": "address",
          "name": "owner",
          "type": "address"
        },
        {
          "indexed": false,
          "internalType": "uint256",
          "name": "kittyId",
          "type": "uint256"
        },
        {
          "indexed": false,
          "internalType": "uint256",
          "name": "mumId",
          "type": "uint256"
        },
        {
          "indexed": false,
          "internalType": "uint256",
          "name": "dadId",
          "type": "uint256"
        },
        {
          "indexed": false,
          "internalType": "uint256",
          "name": "genes",
          "type": "uint256"
        }
      ],
      "name": "Birth",
      "type": "event"
    },
    {
      "anonymous": false,
      "inputs": [
        {
          "indexed": false,
          "internalType": "address",
          "name": "from",
          "type": "address"
        },
        {
          "indexed": false,
          "internalType": "address",
          "name": "to",
          "type": "address"
        },
        {
          "indexed": false,
          "internalType": "uint256",
          "name": "tokenId",
          "type": "uint256"
        }
      ],
      "name": "Transfer",
      "type": "event"
    },
    {
      "constant": true,
      "inputs": [
        {
          "internalType": "uint256",
          "name": "",
          "type": "uint256"
        }
      ],
      "name": "kittyIndexToApproved",
      "outputs": [
        {
          "internalType": "address",
          "name": "",
          "type": "address"
        }
      ],
      "payable": false,
      "stateMutability": "view",
      "type": "function"
    },
    {
      "constant": true,
      "inputs": [
        {
          "internalType": "uint256",
          "name": "",
          "type": "uint256"
        }
      ],
      "name": "kittyIndexToOwner",
      "outputs": [
        {
          "internalType": "address",
          "name": "",
          "type": "address"
        }
      ],
      "payable": false,
      "stateMutability": "view",
      "type": "function"
    },
    {
      "constant": true,
      "inputs": [],
      "name": "name",
      "outputs": [
        {
          "internalType": "string",
          "name": "",
          "type": "string"
        }
      ],
      "payable": false,
      "stateMutability": "view",
      "type": "function"
    },
    {
      "constant": true,
      "inputs": [],
      "name": "symbol",
      "outputs": [
        {
          "internalType": "string",
          "name": "",
          "type": "string"
        }
      ],
      "payable": false,
      "stateMutability": "view",
      "type": "function"
    },
    {
      "constant": true,
      "inputs": [
        {
          "internalType": "bytes4",
          "name": "_interfaceID",
          "type": "bytes4"
        }
      ],
      "name": "supportsInterface",
      "outputs": [
        {
          "internalType": "bool",
          "name": "",
          "type": "bool"
        }
      ],
      "payable": false,
      "stateMutability": "pure",
      "type": "function"
    },
    {
      "constant": true,
      "inputs": [],
      "name": "totalSupply",
      "outputs": [
        {
          "internalType": "uint256",
          "name": "",
          "type": "uint256"
        }
      ],
      "payable": false,
      "stateMutability": "view",
      "type": "function"
    },
    {
      "constant": true,
      "inputs": [
        {
          "internalType": "address",
          "name": "_owner",
          "type": "address"
        }
      ],
      "name": "balanceOf",
      "outputs": [
        {
          "internalType": "uint256",
          "name": "count",
          "type": "uint256"
        }
      ],
      "payable": false,
      "stateMutability": "view",
      "type": "function"
    },
    {
      "constant": true,
      "inputs": [
        {
          "internalType": "uint256",
          "name": "_tokenId",
          "type": "uint256"
        }
      ],
      "name": "ownerOf",
      "outputs": [
        {
          "internalType": "address",
          "name": "owner",
          "type": "address"
        }
      ],
      "payable": false,
      "stateMutability": "view",
      "type": "function"
    },
    {
      "constant": false,
      "inputs": [
        {
          "internalType": "address",
          "name": "_to",
          "type": "address"
        },
        {
          "internalType": "uint256",
          "name": "_tokenId",
          "type": "uint256"
        }
      ],
      "name": "approve",
      "outputs": [],
      "payable": false,
      "stateMutability": "nonpayable",
      "type": "function"
    },
    {
      "constant": false,
      "inputs": [
        {
          "internalType": "address",
          "name": "_to",
          "type": "address"
        },
        {
          "internalType": "uint256",
          "name": "_tokenId",
          "type": "uint256"
        }
      ],
      "name": "transfer",
      "outputs": [],
      "payable": false,
      "stateMutability": "nonpayable",
      "type": "function"
    },
    {
      "constant": false,
      "inputs": [
        {
          "internalType": "address",
          "name": "_from",
          "type": "address"
        },
        {
          "internalType": "address",
          "name": "_to",
          "type": "address"
        },
        {
          "internalType": "uint256",
          "name": "_tokenId",
          "type": "uint256"
        }
      ],
      "name": "transferFrom",
      "outputs": [],
      "payable": false,
      "stateMutability": "nonpayable",
      "type": "function"
    },
    {
      "constant": true,
      "inputs": [
        {
          "internalType": "address",
          "name": "_owner",
          "type": "address"
        }
      ],
      "name": "tokensOfOwner",
      "outputs": [
        {
          "internalType": "uint256[]",
          "name": "ownerTokens",
          "type": "uint256[]"
        }
      ],
      "payable": false,
      "stateMutability": "view",
      "type": "function"
    }
  ],
  "bytecode": "0x608060405234801561001057600080fd5b50610a2d806100206000396000f3fe608060405234801561001057600080fd5b50600436106100d45760003560e01c80636352211e1161008157806395d89b411161005b57806395d89b4114610319578063a45f4bfc14610321578063a9059cbb1461033e576100d4565b80636352211e1461026057806370a082311461027d5780638462151c146102a3576100d4565b806318160ddd116100b257806318160ddd146101d757806323b872dd146101f1578063481af3d314610227576100d4565b806301ffc9a7146100d957806306fdde031461012c578063095ea7b3146101a9575b600080fd5b610118600480360360208110156100ef57600080fd5b50357fffffffff000000000000000000000000000000000000000000000000000000001661036a565b604080519115158252519081900360200190f35b6101346105d0565b6040805160208082528351818301528351919283929083019185019080838360005b8381101561016e578181015183820152602001610156565b50505050905090810190601f16801561019b5780820380516001836020036101000a031916815260200191505b509250505060405180910390f35b6101d5600480360360408110156101bf57600080fd5b506001600160a01b038135169060200135610609565b005b6101df610672565b60408051918252519081900360200190f35b6101d56004803603606081101561020757600080fd5b506001600160a01b0381358116916020810135909116906040013561067c565b6102446004803603602081101561023d57600080fd5b50356106c5565b604080516001600160a01b039092168252519081900360200190f35b6102446004803603602081101561027657600080fd5b50356106e0565b6101df6004803603602081101561029357600080fd5b50356001600160a01b0316610702565b6102c9600480360360208110156102b957600080fd5b50356001600160a01b031661071d565b60408051602080825283518183015283519192839290830191858101910280838360005b838110156103055781810151838201526020016102ed565b505050509050019250505060405180910390f35b6101346107e4565b6102446004803603602081101561033757600080fd5b503561081d565b6101d56004803603604081101561035457600080fd5b506001600160a01b038135169060200135610838565b604080517f737570706f727473496e74657266616365286279746573342900000000000000815290519081900360190190206000907fffffffff00000000000000000000000000000000000000000000000000000000838116911614806105c85750604080517f746f6b656e4d657461646174612875696e743235362c737472696e67290000008152815190819003601d0181207f746f6b656e734f664f776e65722861646472657373290000000000000000000082529151908190036016018120908060256109d48239604080519182900360250182207f7472616e7366657228616464726573732c75696e743235362900000000000000835281519283900360190183207f617070726f766528616464726573732c75696e74323536290000000000000000845282519384900360180184207f6f776e65724f662875696e743235362900000000000000000000000000000000855283519485900360100185207f62616c616e63654f662861646472657373290000000000000000000000000000865284519586900360120186207f746f74616c537570706c792829000000000000000000000000000000000000008752855196879003600d0187207f73796d626f6c2829000000000000000000000000000000000000000000000000885286519788900360080188207f6e616d652829000000000000000000000000000000000000000000000000000089529651978890036006019097207fffffffff000000000000000000000000000000000000000000000000000000008d81169190971890971818181818189390931893909318919091169190911490505b90505b919050565b6040518060400160405280600a81526020017f43727970746f466973680000000000000000000000000000000000000000000081525081565b610613338261086d565b61061c57600080fd5b610626818361088d565b604080513381526001600160a01b038416602082015280820183905290517f8c5be1e5ebec7d5bd14f71427d1e84f3dd0314c0f7b2291e5b200ac8c7c3b9259181900360600190a15050565b6000546000190190565b6001600160a01b03821661068f57600080fd5b61069933826108c8565b6106a257600080fd5b6106ac838261086d565b6106b557600080fd5b6106c08383836108e8565b505050565b6003602052600090815260409020546001600160a01b031681565b6000818152600160205260409020546001600160a01b0316806105cb57600080fd5b6001600160a01b031660009081526002602052604090205490565b6060600061072a83610702565b9050806107475750506040805160008152602081019091526105cb565b606081604051908082528060200260200182016040528015610773578160200160208202803883390190505b5090506000610780610672565b9050600060015b8281116107d7576000818152600160205260409020546001600160a01b03888116911614156107cf57808483815181106107bd57fe5b60209081029190910101526001909101905b600101610787565b83955050505050506105cb565b6040518060400160405280600281526020017f434600000000000000000000000000000000000000000000000000000000000081525081565b6001602052600090815260409020546001600160a01b031681565b6001600160a01b03821661084b57600080fd5b610855338261086d565b61085e57600080fd5b6108693383836108e8565b5050565b6000908152600160205260409020546001600160a01b0391821691161490565b600091825260036020526040909120805473ffffffffffffffffffffffffffffffffffffffff19166001600160a01b03909216919091179055565b6000908152600360205260409020546001600160a01b0391821691161490565b6001600160a01b038083166000818152600260209081526040808320805460019081019091558684529091529020805473ffffffffffffffffffffffffffffffffffffffff19169091179055831615610984576001600160a01b0383166000908152600260209081526040808320805460001901905583835260039091529020805473ffffffffffffffffffffffffffffffffffffffff191690555b604080516001600160a01b0380861682528416602082015280820183905290517fddf252ad1be2c89b69c2b068fc378daa952ba7f163c4a11628f55a4df523b3ef9181900360600190a150505056fe7472616e7366657246726f6d28616464726573732c616464726573732c75696e7432353629a265627a7a723158204048f4f4acf81e93427c32c21dbf52e6e8e02ca37a75e591922f3688f0f6d5a764736f6c634300050c0032",
  "source": "pragma solidity ^0.5.0;\n\nimport \"./KittyFactory.sol\";\n\ncontract KittyOwnership is KittyFactory{\n\n  string public constant name = \"CryptoFish\";\n  string public constant symbol = \"CF\";\n\n  event Transfer(address from, address to, uint256 tokenId);\n  event Approval(address owner, address approved, uint256 tokenId);\n\n  /*\n  *    We use the modulo of each function to set the interfaceId\n  */\n  bytes4 constant InterfaceSignature_ERC165 =\n      bytes4(keccak256('supportsInterface(bytes4)'));\n\n  bytes4 constant InterfaceSignature_ERC721 =\n      bytes4(keccak256('name()')) ^\n      bytes4(keccak256('symbol()')) ^\n      bytes4(keccak256('totalSupply()')) ^\n      bytes4(keccak256('balanceOf(address)')) ^\n      bytes4(keccak256('ownerOf(uint256)')) ^\n      bytes4(keccak256('approve(address,uint256)')) ^\n      bytes4(keccak256('transfer(address,uint256)')) ^\n      bytes4(keccak256('transferFrom(address,address,uint256)')) ^\n      bytes4(keccak256('tokensOfOwner(address)')) ^\n      bytes4(keccak256('tokenMetadata(uint256,string)'));\n\n  function supportsInterface(bytes4 _interfaceID) external pure returns (bool)\n  {\n      return ((_interfaceID == InterfaceSignature_ERC165) || (_interfaceID == InterfaceSignature_ERC721));\n  }\n\n  function _owns(address _claimant, uint256 _tokenId) internal view returns (bool) {\n      return kittyIndexToOwner[_tokenId] == _claimant;\n  }\n\n  function _approvedFor(address _claimant, uint256 _tokenId) internal view returns (bool) {\n      return kittyIndexToApproved[_tokenId] == _claimant;\n  }\n\n  function _approve(uint256 _tokenId, address _approved) internal {\n      kittyIndexToApproved[_tokenId] = _approved;\n  }\n\n  function _deleteApproval(uint256 _tokenId) internal {\n      require(_owns(msg.sender, _tokenId));\n      delete kittyIndexToApproved[_tokenId];\n  }\n\n\n  /*\n  *   Function required by the erc 721 interface\n  */\n\n  function totalSupply() public view returns (uint) {\n      return kitties.length - 1;\n  }\n\n  function balanceOf(address _owner) public view returns (uint256 count) {\n      return ownershipTokenCount[_owner];\n  }\n\n  function ownerOf(uint256 _tokenId)\n      external\n      view\n      returns (address owner)\n  {\n      owner = kittyIndexToOwner[_tokenId];\n\n      require(owner != address(0));\n  }\n\n  function approve(\n      address _to,\n      uint256 _tokenId\n  )\n      public\n  {\n      require(_owns(msg.sender, _tokenId));\n\n      _approve(_tokenId, _to);\n      emit Approval(msg.sender, _to, _tokenId);\n  }\n\n  function transfer(\n      address _to,\n      uint256 _tokenId\n  )\n      public\n  {\n      require(_to != address(0));\n      require(_owns(msg.sender, _tokenId));\n\n      _transfer(msg.sender, _to, _tokenId);\n  }\n\n  function transferFrom(\n      address _from,\n      address _to,\n      uint256 _tokenId\n  )\n      public\n  {\n      require(_to != address(0));\n      require(_approvedFor(msg.sender, _tokenId));\n      require(_owns(_from, _tokenId));\n\n      _transfer(_from, _to, _tokenId);\n  }\n\n  function tokensOfOwner(address _owner) public view returns(uint256[] memory ownerTokens) {\n    uint256 tokenCount = balanceOf(_owner);\n\n    if (tokenCount == 0) {\n        return new uint256[](0);\n    } else {\n        uint256[] memory result = new uint256[](tokenCount);\n        uint256 totalCats = totalSupply();\n        uint256 resultIndex = 0;\n\n        uint256 catId;\n\n        for (catId = 1; catId <= totalCats; catId++) {\n            if (kittyIndexToOwner[catId] == _owner) {\n                result[resultIndex] = catId;\n                resultIndex++;\n            }\n        }\n\n        return result;\n    }\n  }\n}",
  "sourcePath": "/Users/user/Documents/GitHub/CryptoFishFinal/contracts/KittyOwnership.sol",
  "compiler": {
    "name": "solc",
    "version": "0.5.12+commit.7709ece9.Emscripten.clang"
  },
  "schemaVersion": "3.4.4",
  "updatedAt": "2022-01-15T22:29:29.652Z",
  "devdoc": {
    "methods": {}
  },
  "userdoc": {
    "methods": {}
  }
}