{
  "contractName": "KittyCore",
  "abi": [
    {
      "inputs": [],
      "payable": false,
      "stateMutability": "nonpayable",
      "type": "constructor"
    },
    {
      "anonymous": false,
      "inputs": [
        {
          "indexed": false,
          "internalType": "address",
          "name": "owner",
          "type": "address"
        },
        {
          "indexed": false,
          "internalType": "address",
          "name": "approved",
          "type": "address"
        },
        {
          "indexed": false,
          "internalType": "uint256",
          "name": "tokenId",
          "type": "uint256"
        }
      ],
      "name": "Approval",
      "type": "event"
    },
    {
      "anonymous": false,
      "inputs": [
        {
          "indexed": false,
          "internalType": "address",
          "name": "owner",
          "type": "address"
        },
        {
          "indexed": false,
          "internalType": "uint256",
          "name": "kittyId",
          "type": "uint256"
        },
        {
          "indexed": false,
          "internalType": "uint256",
          "name": "mumId",
          "type": "uint256"
        },
        {
          "indexed": false,
          "internalType": "uint256",
          "name": "dadId",
          "type": "uint256"
        },
        {
          "indexed": false,
          "internalType": "uint256",
          "name": "genes",
          "type": "uint256"
        }
      ],
      "name": "Birth",
      "type": "event"
    },
    {
      "anonymous": false,
      "inputs": [
        {
          "indexed": false,
          "internalType": "string",
          "name": "TxType",
          "type": "string"
        },
        {
          "indexed": false,
          "internalType": "address",
          "name": "owner",
          "type": "address"
        },
        {
          "indexed": false,
          "internalType": "uint256",
          "name": "tokenId",
          "type": "uint256"
        }
      ],
      "name": "MarketTransaction",
      "type": "event"
    },
    {
      "anonymous": false,
      "inputs": [
        {
          "indexed": false,
          "internalType": "address",
          "name": "from",
          "type": "address"
        },
        {
          "indexed": false,
          "internalType": "address",
          "name": "to",
          "type": "address"
        },
        {
          "indexed": false,
          "internalType": "uint256",
          "name": "tokenId",
          "type": "uint256"
        }
      ],
      "name": "Transfer",
      "type": "event"
    },
    {
      "constant": true,
      "inputs": [],
      "name": "CREATION_LIMIT_GEN0",
      "outputs": [
        {
          "internalType": "uint256",
          "name": "",
          "type": "uint256"
        }
      ],
      "payable": false,
      "stateMutability": "view",
      "type": "function"
    },
    {
      "constant": false,
      "inputs": [
        {
          "internalType": "address",
          "name": "_to",
          "type": "address"
        },
        {
          "internalType": "uint256",
          "name": "_tokenId",
          "type": "uint256"
        }
      ],
      "name": "approve",
      "outputs": [],
      "payable": false,
      "stateMutability": "nonpayable",
      "type": "function"
    },
    {
      "constant": true,
      "inputs": [
        {
          "internalType": "address",
          "name": "_owner",
          "type": "address"
        }
      ],
      "name": "balanceOf",
      "outputs": [
        {
          "internalType": "uint256",
          "name": "count",
          "type": "uint256"
        }
      ],
      "payable": false,
      "stateMutability": "view",
      "type": "function"
    },
    {
      "constant": false,
      "inputs": [
        {
          "internalType": "uint256",
          "name": "_tokenId",
          "type": "uint256"
        }
      ],
      "name": "buyKitty",
      "outputs": [],
      "payable": true,
      "stateMutability": "payable",
      "type": "function"
    },
    {
      "constant": true,
      "inputs": [],
      "name": "gen0Counter",
      "outputs": [
        {
          "internalType": "uint256",
          "name": "",
          "type": "uint256"
        }
      ],
      "payable": false,
      "stateMutability": "view",
      "type": "function"
    },
    {
      "constant": false,
      "inputs": [],
      "name": "getAllTokenOnSale",
      "outputs": [
        {
          "internalType": "uint256[]",
          "name": "listOfToken",
          "type": "uint256[]"
        }
      ],
      "payable": false,
      "stateMutability": "nonpayable",
      "type": "function"
    },
    {
      "constant": true,
      "inputs": [
        {
          "internalType": "uint256",
          "name": "_tokenId",
          "type": "uint256"
        }
      ],
      "name": "getOffer",
      "outputs": [
        {
          "internalType": "address",
          "name": "seller",
          "type": "address"
        },
        {
          "internalType": "uint256",
          "name": "price",
          "type": "uint256"
        },
        {
          "internalType": "uint256",
          "name": "tokenId",
          "type": "uint256"
        }
      ],
      "payable": false,
      "stateMutability": "view",
      "type": "function"
    },
    {
      "constant": true,
      "inputs": [
        {
          "internalType": "uint256",
          "name": "",
          "type": "uint256"
        }
      ],
      "name": "kittyIndexToApproved",
      "outputs": [
        {
          "internalType": "address",
          "name": "",
          "type": "address"
        }
      ],
      "payable": false,
      "stateMutability": "view",
      "type": "function"
    },
    {
      "constant": true,
      "inputs": [
        {
          "internalType": "uint256",
          "name": "",
          "type": "uint256"
        }
      ],
      "name": "kittyIndexToOwner",
      "outputs": [
        {
          "internalType": "address",
          "name": "",
          "type": "address"
        }
      ],
      "payable": false,
      "stateMutability": "view",
      "type": "function"
    },
    {
      "constant": true,
      "inputs": [],
      "name": "name",
      "outputs": [
        {
          "internalType": "string",
          "name": "",
          "type": "string"
        }
      ],
      "payable": false,
      "stateMutability": "view",
      "type": "function"
    },
    {
      "constant": true,
      "inputs": [],
      "name": "owner",
      "outputs": [
        {
          "internalType": "address",
          "name": "",
          "type": "address"
        }
      ],
      "payable": false,
      "stateMutability": "view",
      "type": "function"
    },
    {
      "constant": true,
      "inputs": [
        {
          "internalType": "uint256",
          "name": "_tokenId",
          "type": "uint256"
        }
      ],
      "name": "ownerOf",
      "outputs": [
        {
          "internalType": "address",
          "name": "owner",
          "type": "address"
        }
      ],
      "payable": false,
      "stateMutability": "view",
      "type": "function"
    },
    {
      "constant": false,
      "inputs": [
        {
          "internalType": "uint256",
          "name": "_tokenId",
          "type": "uint256"
        }
      ],
      "name": "removeOffer",
      "outputs": [],
      "payable": false,
      "stateMutability": "nonpayable",
      "type": "function"
    },
    {
      "constant": false,
      "inputs": [
        {
          "internalType": "uint256",
          "name": "_price",
          "type": "uint256"
        },
        {
          "internalType": "uint256",
          "name": "_tokenId",
          "type": "uint256"
        }
      ],
      "name": "setOffer",
      "outputs": [],
      "payable": false,
      "stateMutability": "nonpayable",
      "type": "function"
    },
    {
      "constant": true,
      "inputs": [
        {
          "internalType": "bytes4",
          "name": "_interfaceID",
          "type": "bytes4"
        }
      ],
      "name": "supportsInterface",
      "outputs": [
        {
          "internalType": "bool",
          "name": "",
          "type": "bool"
        }
      ],
      "payable": false,
      "stateMutability": "pure",
      "type": "function"
    },
    {
      "constant": true,
      "inputs": [],
      "name": "symbol",
      "outputs": [
        {
          "internalType": "string",
          "name": "",
          "type": "string"
        }
      ],
      "payable": false,
      "stateMutability": "view",
      "type": "function"
    },
    {
      "constant": true,
      "inputs": [
        {
          "internalType": "address",
          "name": "_owner",
          "type": "address"
        }
      ],
      "name": "tokensOfOwner",
      "outputs": [
        {
          "internalType": "uint256[]",
          "name": "ownerTokens",
          "type": "uint256[]"
        }
      ],
      "payable": false,
      "stateMutability": "view",
      "type": "function"
    },
    {
      "constant": true,
      "inputs": [],
      "name": "totalSupply",
      "outputs": [
        {
          "internalType": "uint256",
          "name": "",
          "type": "uint256"
        }
      ],
      "payable": false,
      "stateMutability": "view",
      "type": "function"
    },
    {
      "constant": false,
      "inputs": [
        {
          "internalType": "address",
          "name": "_to",
          "type": "address"
        },
        {
          "internalType": "uint256",
          "name": "_tokenId",
          "type": "uint256"
        }
      ],
      "name": "transfer",
      "outputs": [],
      "payable": false,
      "stateMutability": "nonpayable",
      "type": "function"
    },
    {
      "constant": false,
      "inputs": [
        {
          "internalType": "address",
          "name": "_from",
          "type": "address"
        },
        {
          "internalType": "address",
          "name": "_to",
          "type": "address"
        },
        {
          "internalType": "uint256",
          "name": "_tokenId",
          "type": "uint256"
        }
      ],
      "name": "transferFrom",
      "outputs": [],
      "payable": false,
      "stateMutability": "nonpayable",
      "type": "function"
    },
    {
      "constant": false,
      "inputs": [
        {
          "internalType": "address",
          "name": "newOwner",
          "type": "address"
        }
      ],
      "name": "transferOwnership",
      "outputs": [],
      "payable": false,
      "stateMutability": "nonpayable",
      "type": "function"
    },
    {
      "constant": false,
      "inputs": [
        {
          "internalType": "uint256",
          "name": "_dadId",
          "type": "uint256"
        },
        {
          "internalType": "uint256",
          "name": "_mumId",
          "type": "uint256"
        }
      ],
      "name": "Breeding",
      "outputs": [],
      "payable": false,
      "stateMutability": "nonpayable",
      "type": "function"
    },
    {
      "constant": false,
      "inputs": [
        {
          "internalType": "uint256",
          "name": "_genes",
          "type": "uint256"
        }
      ],
      "name": "createFishGen0",
      "outputs": [],
      "payable": false,
      "stateMutability": "nonpayable",
      "type": "function"
    },
    {
      "constant": true,
      "inputs": [
        {
          "internalType": "uint256",
          "name": "_id",
          "type": "uint256"
        }
      ],
      "name": "getKitty",
      "outputs": [
        {
          "internalType": "uint256",
          "name": "genes",
          "type": "uint256"
        },
        {
          "internalType": "uint256",
          "name": "birthTime",
          "type": "uint256"
        },
        {
          "internalType": "uint256",
          "name": "mumId",
          "type": "uint256"
        },
        {
          "internalType": "uint256",
          "name": "dadId",
          "type": "uint256"
        },
        {
          "internalType": "uint256",
          "name": "generation",
          "type": "uint256"
        }
      ],
      "payable": false,
      "stateMutability": "view",
      "type": "function"
    }
  ],
  "bytecode": "0x60806040523480156200001157600080fd5b50600080546001600160a01b031916331781556200003e908080600019816001600160e01b036200004516565b5062000317565b600062000051620002e9565b506040805160a0810182528481526001600160401b034281166020830190815263ffffffff808b169484019485528981166060850190815261ffff808b16608087019081526001805480820182556000919091528751600282027fb10e2d527612073b26eecdfd717e6a320cf44b4afac2b0732d9fcbe2b7fa0cf681019190915595517fb10e2d527612073b26eecdfd717e6a320cf44b4afac2b0732d9fcbe2b7fa0cf790960180549951945192519093167001000000000000000000000000000000000261ffff60801b199286166c010000000000000000000000000263ffffffff60601b19958716680100000000000000000263ffffffff60401b19989099166001600160401b0319909b169a909a179690961696909617929092169690961716919091179093559091811681146200018b57600080fd5b604082810151606080850151855184516001600160a01b038a1681526020810187905263ffffffff948516818701529390911691830191909152608082015290517f0a5311bd2a6608f08a180df2ee7c5946819a649b204b554bb8e39825b2c50ad59181900360a00190a16200020d600085836001600160e01b036200021816565b979650505050505050565b6001600160a01b038083166000818152600360209081526040808320805460010190558583526002909152902080546001600160a01b03191690911790558316156200029a576001600160a01b038316600090815260036020908152604080832080546000190190558383526004909152902080546001600160a01b03191690555b604080516001600160a01b0380861682528416602082015280820183905290517fddf252ad1be2c89b69c2b068fc378daa952ba7f163c4a11628f55a4df523b3ef9181900360600190a1505050565b6040805160a08101825260008082526020820181905291810182905260608101829052608081019190915290565b611b5480620003276000396000f3fe60806040526004361061018b5760003560e01c80638da5cb5b116100d6578063ae5310f61161007f578063e98b7f4d11610059578063e98b7f4d1461061f578063ef5e94aa14610674578063f2fde38b146106895761018b565b8063ae5310f6146105bd578063b4834330146105da578063b921a400146105ef5761018b565b806395d89b41116100b057806395d89b4114610545578063a45f4bfc1461055a578063a9059cbb146105845761018b565b80638da5cb5b146104d6578063941b055b146104eb57806395a0f9c71461051b5761018b565b8063481af3d31161013857806370a082311161011257806370a08231146104465780638462151c1461047957806384a6f2dc146104ac5761018b565b8063481af3d31461037157806349b3709f146103b75780636352211e1461041c5761018b565b806318160ddd1161016957806318160ddd146102b557806323b872dd146102dc5780634579268a1461031f5761018b565b806301ffc9a71461019057806306fdde03146101f0578063095ea7b31461027a575b600080fd5b34801561019c57600080fd5b506101dc600480360360208110156101b357600080fd5b50357fffffffff00000000000000000000000000000000000000000000000000000000166106bc565b604080519115158252519081900360200190f35b3480156101fc57600080fd5b50610205610922565b6040805160208082528351818301528351919283929083019185019080838360005b8381101561023f578181015183820152602001610227565b50505050905090810190601f16801561026c5780820380516001836020036101000a031916815260200191505b509250505060405180910390f35b34801561028657600080fd5b506102b36004803603604081101561029d57600080fd5b506001600160a01b03813516906020013561095b565b005b3480156102c157600080fd5b506102ca6109c4565b60408051918252519081900360200190f35b3480156102e857600080fd5b506102b3600480360360608110156102ff57600080fd5b506001600160a01b038135811691602081013590911690604001356109cf565b34801561032b57600080fd5b506103496004803603602081101561034257600080fd5b5035610a18565b604080516001600160a01b039094168452602084019290925282820152519081900360600190f35b34801561037d57600080fd5b5061039b6004803603602081101561039457600080fd5b5035610a41565b604080516001600160a01b039092168252519081900360200190f35b3480156103c357600080fd5b506103cc610a5c565b60408051602080825283518183015283519192839290830191858101910280838360005b838110156104085781810151838201526020016103f0565b505050509050019250505060405180910390f35b34801561042857600080fd5b5061039b6004803603602081101561043f57600080fd5b5035610b27565b34801561045257600080fd5b506102ca6004803603602081101561046957600080fd5b50356001600160a01b0316610b49565b34801561048557600080fd5b506103cc6004803603602081101561049c57600080fd5b50356001600160a01b0316610b64565b3480156104b857600080fd5b506102b3600480360360208110156104cf57600080fd5b5035610c2b565b3480156104e257600080fd5b5061039b610ca4565b3480156104f757600080fd5b506102b36004803603604081101561050e57600080fd5b5080359060200135610cb3565b34801561052757600080fd5b506102b36004803603602081101561053e57600080fd5b5035610ecc565b34801561055157600080fd5b50610205611093565b34801561056657600080fd5b5061039b6004803603602081101561057d57600080fd5b50356110cc565b34801561059057600080fd5b506102b3600480360360408110156105a757600080fd5b506001600160a01b0381351690602001356110e7565b6102b3600480360360208110156105d357600080fd5b5035611118565b3480156105e657600080fd5b506102ca6112df565b3480156105fb57600080fd5b506102b36004803603604081101561061257600080fd5b50803590602001356112e5565b34801561062b57600080fd5b506106496004803603602081101561064257600080fd5b5035611561565b6040805195865260208601949094528484019290925260608401526080830152519081900360a00190f35b34801561068057600080fd5b506102ca611648565b34801561069557600080fd5b506102b3600480360360208110156106ac57600080fd5b50356001600160a01b031661164e565b604080517f737570706f727473496e74657266616365286279746573342900000000000000815290519081900360190190206000907fffffffff000000000000000000000000000000000000000000000000000000008381169116148061091a5750604080517f746f6b656e4d657461646174612875696e743235362c737472696e67290000008152815190819003601d0181207f746f6b656e734f664f776e6572286164647265737329000000000000000000008252915190819003601601812090806025611a798239604080519182900360250182207f7472616e7366657228616464726573732c75696e743235362900000000000000835281519283900360190183207f617070726f766528616464726573732c75696e74323536290000000000000000845282519384900360180184207f6f776e65724f662875696e743235362900000000000000000000000000000000855283519485900360100185207f62616c616e63654f662861646472657373290000000000000000000000000000865284519586900360120186207f746f74616c537570706c792829000000000000000000000000000000000000008752855196879003600d0187207f73796d626f6c2829000000000000000000000000000000000000000000000000885286519788900360080188207f6e616d652829000000000000000000000000000000000000000000000000000089529651978890036006019097207fffffffff000000000000000000000000000000000000000000000000000000008d81169190971890971818181818189390931893909318919091169190911490505b90505b919050565b6040518060400160405280600a81526020017f43727970746f466973680000000000000000000000000000000000000000000081525081565b6109653382611694565b61096e57600080fd5b61097881836116b4565b604080513381526001600160a01b038416602082015280820183905290517f8c5be1e5ebec7d5bd14f71427d1e84f3dd0314c0f7b2291e5b200ac8c7c3b9259181900360600190a15050565b600154600019015b90565b6001600160a01b0382166109e257600080fd5b6109ec33826116e2565b6109f557600080fd5b6109ff8382611694565b610a0857600080fd5b610a13838383611702565b505050565b6000908152600660205260409020805460018201546002909201546001600160a01b0390911692565b6004602052600090815260409020546001600160a01b031681565b60055460609080610a7d5750506040805160008152602081019091526109cc565b606081604051908082528060200260200182016040528015610aa9578160200160208202803883390190505b50905060005b82811015610b1d5760058181548110610ac457fe5b906000526020600020906003020160010154600014610b155760058181548110610aea57fe5b906000526020600020906003020160020154828281518110610b0857fe5b6020026020010181815250505b600101610aaf565b5091506109cc9050565b6000818152600260205260409020546001600160a01b03168061091d57600080fd5b6001600160a01b031660009081526003602052604090205490565b60606000610b7183610b49565b905080610b8e57505060408051600081526020810190915261091d565b606081604051908082528060200260200182016040528015610bba578160200160208202803883390190505b5090506000610bc76109c4565b9050600060015b828111610c1e576000818152600260205260409020546001600160a01b0388811691161415610c165780848381518110610c0457fe5b60209081029190910101526001909101905b600101610bce565b839550505050505061091d565b6000546001600160a01b03163314610c4257600080fd5b6103e860085410610c5257600080fd5b6008805460010190819055600a10610c8f576000610c75600080600085336117d2565b9050610c896702c68af0bb14000082610cb3565b50610ca1565b610c9f6000806103e784336117d2565b505b50565b6000546001600160a01b031681565b661ff973cafa80008211610cf85760405162461bcd60e51b8152600401808060200182810382526026815260200180611ac36026913960400191505060405180910390fd5b60008181526006602052604090206001015415610d465760405162461bcd60e51b8152600401808060200182810382526025815260200180611a9e6025913960400191505060405180910390fd5b610d50308261095b565b610d58611a01565b506040805160608082018352338083526020808401878152848601878152600088815260068452878120875181546001600160a01b039182166001600160a01b03199182161783558551600180850191909155855160029094019390935560058054938401815584528951600384027f036b6384b5eca791c62761152d0c79bb0604c104a5fb6f4eb0703f3154bb3db08101805492909416919092161790915593517f036b6384b5eca791c62761152d0c79bb0604c104a5fb6f4eb0703f3154bb3db185015591517f036b6384b5eca791c62761152d0c79bb0604c104a5fb6f4eb0703f3154bb3db2909301929092558782526007835290869020819055855191820192909252808501869052828152600c928101929092527f437265617465206f666665720000000000000000000000000000000000000000608083015292519192917fd99e4fad9ad6313b1feb588fa8e605e3a9873172f2024330c35dd2b4041a43869181900360a00190a150505050565b610ed63382611694565b610f27576040805162461bcd60e51b815260206004820152601e60248201527f546865207573657220646f65736e2774206f776e2074686520746f6b656e0000604482015290519081900360640190fd5b610f2f611a01565b50600081815260066020908152604091829020825160608101845281546001600160a01b0316808252600183015493820193909352600290910154928101929092523314610fae5760405162461bcd60e51b8152600401808060200182810382526037815260200180611ae96037913960400191505060405180910390fd5b600082815260076020526040902054600580549091908110610fcc57fe5b60009182526020808320600390920290910180546001600160a01b0319908116825560018083018590556002928301859055868552600690935260408420805490911681559182018390550155611022826119d0565b604080513360208201528082018490526060808252600c908201527f52656d6f7665206f666665720000000000000000000000000000000000000000608082015290517fd99e4fad9ad6313b1feb588fa8e605e3a9873172f2024330c35dd2b4041a43869181900360a00190a15050565b6040518060400160405280600281526020017f434600000000000000000000000000000000000000000000000000000000000081525081565b6002602052600090815260409020546001600160a01b031681565b6001600160a01b0382166110fa57600080fd5b6111043382611694565b61110d57600080fd5b610c9f338383611702565b611120611a01565b50600081815260066020908152604091829020825160608101845281546001600160a01b0316815260018201549281018390526002909101549281019290925234146111b3576040805162461bcd60e51b815260206004820152601860248201527f546865207072696365206973206e6f7420636f72726563740000000000000000604482015290519081900360640190fd5b6000828152600760205260409020546005805490919081106111d157fe5b60009182526020808320600390920290910180546001600160a01b031990811682556001808301859055600292830185905586855260069093526040842080549091168155918201839055015561122882336116b4565b80516112359033846109cf565b80516040516001600160a01b03909116903480156108fc02916000818181858888f1935050505015801561126d573d6000803e3d6000fd5b506040805133602082015280820184905260608082526003908201527f4275790000000000000000000000000000000000000000000000000000000000608082015290517fd99e4fad9ad6313b1feb588fa8e605e3a9873172f2024330c35dd2b4041a43869181900360a00190a15050565b6103e881565b6112ef3383611694565b611340576040805162461bcd60e51b815260206004820152601e60248201527f546865207573657220646f65736e2774206f776e2074686520746f6b656e0000604482015290519081900360640190fd5b61134a3382611694565b61139b576040805162461bcd60e51b815260206004820152601e60248201527f546865207573657220646f65736e2774206f776e2074686520746f6b656e0000604482015290519081900360640190fd5b818114156113f0576040805162461bcd60e51b815260206004820181905260248201527f54686520466973682063616e277420726570726f647563652068696d73656c66604482015290519081900360640190fd5b6000806113fc84611561565b9450505050915060008061140f85611561565b945050505091506000611420611a2b565b600760ff420660015b6080811161148d5781811660ff1615611459576064870660ff1684846008811061144f57fe5b6020020152611472565b6064890660ff1684846008811061146c57fe5b60200201525b60648704965060648904985060001990920191600202611429565b6000600760ff8416069050606360ff84160660ff16858260ff16600881106114b157fe5b6020020152600091505b60088210156114f3578482600881106114d057fe5b602002015186019550816007146114e8576064860295505b6001909101906114bb565b6000878a101561150e5750600187016002815b049050611529565b878a1115611523575060018901600281611506565b50600187015b896103e7148061153a5750876103e7145b1561154457506103e75b6115518c8e838a336117d2565b5050505050505050505050505050565b6000806000806000806001878154811061157757fe5b60009182526020909120600290910201600181015490915067ffffffffffffffff166115ea576040805162461bcd60e51b815260206004820152601660248201527f746865204669736820646f65736e277420657869737400000000000000000000604482015290519081900360640190fd5b600181015490549767ffffffffffffffff8216975068010000000000000000820463ffffffff90811697506c01000000000000000000000000830416955070010000000000000000000000000000000090910461ffff169350915050565b60085481565b6000546001600160a01b0316331461166557600080fd5b6001600160a01b03811615610ca157600080546001600160a01b0383166001600160a01b031990911617905550565b6000908152600260205260409020546001600160a01b0391821691161490565b60009182526004602052604090912080546001600160a01b0319166001600160a01b03909216919091179055565b6000908152600460205260409020546001600160a01b0391821691161490565b6001600160a01b038083166000818152600360209081526040808320805460010190558583526002909152902080546001600160a01b0319169091179055831615611783576001600160a01b038316600090815260036020908152604080832080546000190190558383526004909152902080546001600160a01b03191690555b604080516001600160a01b0380861682528416602082015280820183905290517fddf252ad1be2c89b69c2b068fc378daa952ba7f163c4a11628f55a4df523b3ef9181900360600190a1505050565b60006117dc611a4a565b506040805160a08101825284815267ffffffffffffffff4281166020830190815263ffffffff808b169484019485528981166060850190815261ffff808b16608087019081526001805480820182556000919091528751600282027fb10e2d527612073b26eecdfd717e6a320cf44b4afac2b0732d9fcbe2b7fa0cf681019190915595517fb10e2d527612073b26eecdfd717e6a320cf44b4afac2b0732d9fcbe2b7fa0cf79096018054995194519251909316700100000000000000000000000000000000027fffffffffffffffffffffffffffff0000ffffffffffffffffffffffffffffffff9286166c01000000000000000000000000027fffffffffffffffffffffffffffffffff00000000ffffffffffffffffffffffff95871668010000000000000000026bffffffff0000000000000000199890991667ffffffffffffffff19909b169a909a1796909616969096179290921696909617169190911790935590918116811461194e57600080fd5b604082810151606080850151855184516001600160a01b038a1681526020810187905263ffffffff948516818701529390911691830191909152608082015290517f0a5311bd2a6608f08a180df2ee7c5946819a649b204b554bb8e39825b2c50ad59181900360a00190a16119c560008583611702565b979650505050505050565b6119da3382611694565b6119e357600080fd5b600090815260046020526040902080546001600160a01b0319169055565b604051806060016040528060006001600160a01b0316815260200160008152602001600081525090565b6040518061010001604052806008906020820280388339509192915050565b6040805160a0810182526000808252602082018190529181018290526060810182905260808101919091529056fe7472616e7366657246726f6d28616464726573732c616464726573732c75696e7432353629596f752063616e27742073656c6c207477696365207468652073616d65206f666665727320466973682070726963652073686f756c642062652067726561746572207468616e20302e3031596f752073686f756c64206f776e20746865204669736820746f2062652061626c6520746f2072656d6f76652074686973206f66666572a265627a7a72315820e369e0d017f51907e3cf14c87550ba9cb50b4fa532ddf76eebc7edf94bbd6d2064736f6c634300050c0032",
  "source": "import \"./utils/Ownable.sol\";\nimport \"./KittyMarketPlace.sol\";\n\npragma solidity ^0.5.0;\n\ncontract KittyCore is Ownable, KittyMarketPlace {\n\n  uint256 public constant CREATION_LIMIT_GEN0 = 1000;\n\n  // Counts the number of cats the contract owner has created.\n  uint256 public gen0Counter;\n\n  constructor() public {\n    // We are creating the first kitty at index 0  \n    _createKitty(0, 0, 0, uint256(-1), address(0));\n  }\n\n/*\n*       we get a \n*\n*       Basic binary operation\n*\n*       >>> '{0:08b}'.format(255 & 1)\n*       '00000001'\n*       >>> '{0:08b}'.format(255 & 2)\n*       '00000010'\n*       >>> '{0:08b}'.format(255 & 4)\n*       '00000100'\n*       >>> '{0:08b}'.format(255 & 8)\n*       '00001000'\n*       >>> '{0:08b}'.format(255 & 16)\n*       '00010000'\n*       >>> '{0:08b}'.format(255 & 32)\n*       '00100000'\n*       >>> '{0:08b}'.format(255 & 64)\n*       '01000000'\n*       >>> '{0:08b}'.format(255 & 128)\n*       '10000000'\n*\n*       So we use a mask on our random number to check if we will use the mumID or the dadId\n*\n*       For example 205 is 11001101 in binary So\n*       mum - mum - dad -dad -mum - mum - dad - mum\n*\n*/\n  function Breeding(uint256 _dadId, uint256 _mumId) public {\n      require(_owns(msg.sender, _dadId), \"The user doesn't own the token\");\n      require(_owns(msg.sender, _mumId), \"The user doesn't own the token\");\n\n      require(_mumId != _dadId, \"The Fish can't reproduce himself\");\n\n      ( uint256 Dadgenes,,,,uint256 DadGeneration ) = getKitty(_dadId);\n\n      ( uint256 Mumgenes,,,,uint256 MumGeneration ) = getKitty(_mumId);\n\n      uint256 geneKid;\n      uint256 [8] memory geneArray;\n      uint256 index = 7;\n      uint8 random = uint8(now % 255);\n      uint256 i = 0;\n      \n      for(i = 1; i <= 128; i=i*2){\n\n          /* We are */\n          if(random & i != 0){\n              geneArray[index] = uint8(Mumgenes % 100);\n          } else {\n              geneArray[index] = uint8(Dadgenes % 100);\n          }\n          Mumgenes /= 100;\n          Dadgenes /= 100;\n        index -= 1;\n      }\n     \n      /* Add a random parameter in a random place */\n      uint8 newGeneIndex =  random % 7;\n      geneArray[newGeneIndex] = random % 99;\n\n      /* We reverse the DNa in the right order */\n      for (i = 0 ; i < 8; i++ ){\n        geneKid += geneArray[i];\n        if(i != 7){\n            geneKid *= 100;\n        }\n      }\n\n      uint256 kidGen = 0;\n      if (DadGeneration < MumGeneration){\n        kidGen = MumGeneration + 1;\n        kidGen /= 2;\n      } else if (DadGeneration > MumGeneration){\n        kidGen = DadGeneration + 1;\n        kidGen /= 2;\n      } else{\n        kidGen = MumGeneration + 1;\n      }\n\n      if (DadGeneration == 999 || MumGeneration == 999) { \n        kidGen = 999;\n      }\n\n      _createKitty(_mumId, _dadId, kidGen, geneKid, msg.sender);\n  }\n\n\n  function createFishGen0(uint256 _genes) public onlyOwner {\n    require(gen0Counter < CREATION_LIMIT_GEN0);\n\n    gen0Counter++;\n\n    if(gen0Counter <= 10) { \n      uint256 tokenId = _createKitty(0, 0, 0, _genes, msg.sender);\n      setOffer(0.2 ether, tokenId);\n    }\n    else  {\n      _createKitty(0, 0, 999, _genes, msg.sender);\n    }\n  }\n\n  function getKitty(uint256 _id)\n    public\n    view\n    returns (\n    uint256 genes,\n    uint256 birthTime,\n    uint256 mumId,\n    uint256 dadId,\n    uint256 generation\n  ) {\n    Kitty storage kitty = kitties[_id];\n\n    require(kitty.birthTime > 0, \"the Fish doesn't exist\");\n\n    birthTime = uint256(kitty.birthTime);\n    mumId = uint256(kitty.mumId);\n    dadId = uint256(kitty.dadId);\n    generation = uint256(kitty.generation);\n    genes = kitty.genes;\n  }\n}",
  "sourcePath": "/Users/user/Documents/GitHub/CryptoFishFinal/contracts/KittyCore.sol",
  "compiler": {
    "name": "solc",
    "version": "0.5.12+commit.7709ece9.Emscripten.clang"
  },
  "schemaVersion": "3.4.7",
  "updatedAt": "2022-05-26T08:36:51.045Z",
  "networkType": "ethereum",
  "devdoc": {
    "methods": {
      "transferOwnership(address)": {
        "details": "Allows the current owner to transfer control of the contract to a newOwner.",
        "params": {
          "newOwner": "The address to transfer ownership to."
        }
      }
    }
  },
  "userdoc": {
    "methods": {}
  }
}