{
  "contractName": "KittyMarketPlace",
  "abi": [
    {
      "anonymous": false,
      "inputs": [
        {
          "indexed": false,
          "internalType": "address",
          "name": "owner",
          "type": "address"
        },
        {
          "indexed": false,
          "internalType": "address",
          "name": "approved",
          "type": "address"
        },
        {
          "indexed": false,
          "internalType": "uint256",
          "name": "tokenId",
          "type": "uint256"
        }
      ],
      "name": "Approval",
      "type": "event"
    },
    {
      "anonymous": false,
      "inputs": [
        {
          "indexed": false,
          "internalType": "address",
          "name": "owner",
          "type": "address"
        },
        {
          "indexed": false,
          "internalType": "uint256",
          "name": "kittyId",
          "type": "uint256"
        },
        {
          "indexed": false,
          "internalType": "uint256",
          "name": "mumId",
          "type": "uint256"
        },
        {
          "indexed": false,
          "internalType": "uint256",
          "name": "dadId",
          "type": "uint256"
        },
        {
          "indexed": false,
          "internalType": "uint256",
          "name": "genes",
          "type": "uint256"
        }
      ],
      "name": "Birth",
      "type": "event"
    },
    {
      "anonymous": false,
      "inputs": [
        {
          "indexed": false,
          "internalType": "string",
          "name": "TxType",
          "type": "string"
        },
        {
          "indexed": false,
          "internalType": "address",
          "name": "owner",
          "type": "address"
        },
        {
          "indexed": false,
          "internalType": "uint256",
          "name": "tokenId",
          "type": "uint256"
        }
      ],
      "name": "MarketTransaction",
      "type": "event"
    },
    {
      "anonymous": false,
      "inputs": [
        {
          "indexed": false,
          "internalType": "address",
          "name": "from",
          "type": "address"
        },
        {
          "indexed": false,
          "internalType": "address",
          "name": "to",
          "type": "address"
        },
        {
          "indexed": false,
          "internalType": "uint256",
          "name": "tokenId",
          "type": "uint256"
        }
      ],
      "name": "Transfer",
      "type": "event"
    },
    {
      "constant": false,
      "inputs": [
        {
          "internalType": "address",
          "name": "_to",
          "type": "address"
        },
        {
          "internalType": "uint256",
          "name": "_tokenId",
          "type": "uint256"
        }
      ],
      "name": "approve",
      "outputs": [],
      "payable": false,
      "stateMutability": "nonpayable",
      "type": "function"
    },
    {
      "constant": true,
      "inputs": [
        {
          "internalType": "address",
          "name": "_owner",
          "type": "address"
        }
      ],
      "name": "balanceOf",
      "outputs": [
        {
          "internalType": "uint256",
          "name": "count",
          "type": "uint256"
        }
      ],
      "payable": false,
      "stateMutability": "view",
      "type": "function"
    },
    {
      "constant": true,
      "inputs": [
        {
          "internalType": "uint256",
          "name": "",
          "type": "uint256"
        }
      ],
      "name": "kittyIndexToApproved",
      "outputs": [
        {
          "internalType": "address",
          "name": "",
          "type": "address"
        }
      ],
      "payable": false,
      "stateMutability": "view",
      "type": "function"
    },
    {
      "constant": true,
      "inputs": [
        {
          "internalType": "uint256",
          "name": "",
          "type": "uint256"
        }
      ],
      "name": "kittyIndexToOwner",
      "outputs": [
        {
          "internalType": "address",
          "name": "",
          "type": "address"
        }
      ],
      "payable": false,
      "stateMutability": "view",
      "type": "function"
    },
    {
      "constant": true,
      "inputs": [],
      "name": "name",
      "outputs": [
        {
          "internalType": "string",
          "name": "",
          "type": "string"
        }
      ],
      "payable": false,
      "stateMutability": "view",
      "type": "function"
    },
    {
      "constant": true,
      "inputs": [
        {
          "internalType": "uint256",
          "name": "_tokenId",
          "type": "uint256"
        }
      ],
      "name": "ownerOf",
      "outputs": [
        {
          "internalType": "address",
          "name": "owner",
          "type": "address"
        }
      ],
      "payable": false,
      "stateMutability": "view",
      "type": "function"
    },
    {
      "constant": true,
      "inputs": [
        {
          "internalType": "bytes4",
          "name": "_interfaceID",
          "type": "bytes4"
        }
      ],
      "name": "supportsInterface",
      "outputs": [
        {
          "internalType": "bool",
          "name": "",
          "type": "bool"
        }
      ],
      "payable": false,
      "stateMutability": "pure",
      "type": "function"
    },
    {
      "constant": true,
      "inputs": [],
      "name": "symbol",
      "outputs": [
        {
          "internalType": "string",
          "name": "",
          "type": "string"
        }
      ],
      "payable": false,
      "stateMutability": "view",
      "type": "function"
    },
    {
      "constant": true,
      "inputs": [
        {
          "internalType": "address",
          "name": "_owner",
          "type": "address"
        }
      ],
      "name": "tokensOfOwner",
      "outputs": [
        {
          "internalType": "uint256[]",
          "name": "ownerTokens",
          "type": "uint256[]"
        }
      ],
      "payable": false,
      "stateMutability": "view",
      "type": "function"
    },
    {
      "constant": true,
      "inputs": [],
      "name": "totalSupply",
      "outputs": [
        {
          "internalType": "uint256",
          "name": "",
          "type": "uint256"
        }
      ],
      "payable": false,
      "stateMutability": "view",
      "type": "function"
    },
    {
      "constant": false,
      "inputs": [
        {
          "internalType": "address",
          "name": "_to",
          "type": "address"
        },
        {
          "internalType": "uint256",
          "name": "_tokenId",
          "type": "uint256"
        }
      ],
      "name": "transfer",
      "outputs": [],
      "payable": false,
      "stateMutability": "nonpayable",
      "type": "function"
    },
    {
      "constant": false,
      "inputs": [
        {
          "internalType": "address",
          "name": "_from",
          "type": "address"
        },
        {
          "internalType": "address",
          "name": "_to",
          "type": "address"
        },
        {
          "internalType": "uint256",
          "name": "_tokenId",
          "type": "uint256"
        }
      ],
      "name": "transferFrom",
      "outputs": [],
      "payable": false,
      "stateMutability": "nonpayable",
      "type": "function"
    },
    {
      "constant": true,
      "inputs": [
        {
          "internalType": "uint256",
          "name": "_tokenId",
          "type": "uint256"
        }
      ],
      "name": "getOffer",
      "outputs": [
        {
          "internalType": "address",
          "name": "seller",
          "type": "address"
        },
        {
          "internalType": "uint256",
          "name": "price",
          "type": "uint256"
        },
        {
          "internalType": "uint256",
          "name": "tokenId",
          "type": "uint256"
        }
      ],
      "payable": false,
      "stateMutability": "view",
      "type": "function"
    },
    {
      "constant": false,
      "inputs": [],
      "name": "getAllTokenOnSale",
      "outputs": [
        {
          "internalType": "uint256[]",
          "name": "listOfToken",
          "type": "uint256[]"
        }
      ],
      "payable": false,
      "stateMutability": "nonpayable",
      "type": "function"
    },
    {
      "constant": false,
      "inputs": [
        {
          "internalType": "uint256",
          "name": "_price",
          "type": "uint256"
        },
        {
          "internalType": "uint256",
          "name": "_tokenId",
          "type": "uint256"
        }
      ],
      "name": "setOffer",
      "outputs": [],
      "payable": false,
      "stateMutability": "nonpayable",
      "type": "function"
    },
    {
      "constant": false,
      "inputs": [
        {
          "internalType": "uint256",
          "name": "_tokenId",
          "type": "uint256"
        }
      ],
      "name": "removeOffer",
      "outputs": [],
      "payable": false,
      "stateMutability": "nonpayable",
      "type": "function"
    },
    {
      "constant": false,
      "inputs": [
        {
          "internalType": "uint256",
          "name": "_tokenId",
          "type": "uint256"
        }
      ],
      "name": "buyKitty",
      "outputs": [],
      "payable": true,
      "stateMutability": "payable",
      "type": "function"
    }
  ],
  "bytecode": "0x608060405234801561001057600080fd5b50611333806100206000396000f3fe60806040526004361061010e5760003560e01c80636352211e116100a557806395a0f9c711610074578063a45f4bfc11610059578063a45f4bfc1461049e578063a9059cbb146104c8578063ae5310f6146105015761010e565b806395a0f9c71461045f57806395d89b41146104895761010e565b80636352211e1461039f57806370a08231146103c95780638462151c146103fc578063941b055b1461042f5761010e565b806323b872dd116100e157806323b872dd1461025f5780634579268a146102a2578063481af3d3146102f457806349b3709f1461033a5761010e565b806301ffc9a71461011357806306fdde0314610173578063095ea7b3146101fd57806318160ddd14610238575b600080fd5b34801561011f57600080fd5b5061015f6004803603602081101561013657600080fd5b50357fffffffff000000000000000000000000000000000000000000000000000000001661051e565b604080519115158252519081900360200190f35b34801561017f57600080fd5b50610188610784565b6040805160208082528351818301528351919283929083019185019080838360005b838110156101c25781810151838201526020016101aa565b50505050905090810190601f1680156101ef5780820380516001836020036101000a031916815260200191505b509250505060405180910390f35b34801561020957600080fd5b506102366004803603604081101561022057600080fd5b506001600160a01b0381351690602001356107bd565b005b34801561024457600080fd5b5061024d610826565b60408051918252519081900360200190f35b34801561026b57600080fd5b506102366004803603606081101561028257600080fd5b506001600160a01b03813581169160208101359091169060400135610831565b3480156102ae57600080fd5b506102cc600480360360208110156102c557600080fd5b503561087a565b604080516001600160a01b039094168452602084019290925282820152519081900360600190f35b34801561030057600080fd5b5061031e6004803603602081101561031757600080fd5b50356108a3565b604080516001600160a01b039092168252519081900360200190f35b34801561034657600080fd5b5061034f6108be565b60408051602080825283518183015283519192839290830191858101910280838360005b8381101561038b578181015183820152602001610373565b505050509050019250505060405180910390f35b3480156103ab57600080fd5b5061031e600480360360208110156103c257600080fd5b5035610989565b3480156103d557600080fd5b5061024d600480360360208110156103ec57600080fd5b50356001600160a01b03166109ab565b34801561040857600080fd5b5061034f6004803603602081101561041f57600080fd5b50356001600160a01b03166109c6565b34801561043b57600080fd5b506102366004803603604081101561045257600080fd5b5080359060200135610a8d565b34801561046b57600080fd5b506102366004803603602081101561048257600080fd5b5035610ca6565b34801561049557600080fd5b50610188610e6d565b3480156104aa57600080fd5b5061031e600480360360208110156104c157600080fd5b5035610ea6565b3480156104d457600080fd5b50610236600480360360408110156104eb57600080fd5b506001600160a01b038135169060200135610ec1565b6102366004803603602081101561051757600080fd5b5035610ef6565b604080517f737570706f727473496e74657266616365286279746573342900000000000000815290519081900360190190206000907fffffffff000000000000000000000000000000000000000000000000000000008381169116148061077c5750604080517f746f6b656e4d657461646174612875696e743235362c737472696e67290000008152815190819003601d0181207f746f6b656e734f664f776e65722861646472657373290000000000000000000082529151908190036016018120908060256112588239604080519182900360250182207f7472616e7366657228616464726573732c75696e743235362900000000000000835281519283900360190183207f617070726f766528616464726573732c75696e74323536290000000000000000845282519384900360180184207f6f776e65724f662875696e743235362900000000000000000000000000000000855283519485900360100185207f62616c616e63654f662861646472657373290000000000000000000000000000865284519586900360120186207f746f74616c537570706c792829000000000000000000000000000000000000008752855196879003600d0187207f73796d626f6c2829000000000000000000000000000000000000000000000000885286519788900360080188207f6e616d652829000000000000000000000000000000000000000000000000000089529651978890036006019097207fffffffff000000000000000000000000000000000000000000000000000000008d81169190971890971818181818189390931893909318919091169190911490505b90505b919050565b6040518060400160405280600a81526020017f43727970746f466973680000000000000000000000000000000000000000000081525081565b6107c733826110bd565b6107d057600080fd5b6107da81836110dd565b604080513381526001600160a01b038416602082015280820183905290517f8c5be1e5ebec7d5bd14f71427d1e84f3dd0314c0f7b2291e5b200ac8c7c3b9259181900360600190a15050565b600054600019015b90565b6001600160a01b03821661084457600080fd5b61084e338261110b565b61085757600080fd5b61086183826110bd565b61086a57600080fd5b61087583838361112b565b505050565b6000908152600560205260409020805460018201546002909201546001600160a01b0390911692565b6003602052600090815260409020546001600160a01b031681565b600454606090806108df57505060408051600081526020810190915261082e565b60608160405190808252806020026020018201604052801561090b578160200160208202803883390190505b50905060005b8281101561097f576004818154811061092657fe5b906000526020600020906003020160010154600014610977576004818154811061094c57fe5b90600052602060002090600302016002015482828151811061096a57fe5b6020026020010181815250505b600101610911565b50915061082e9050565b6000818152600160205260409020546001600160a01b03168061077f57600080fd5b6001600160a01b031660009081526002602052604090205490565b606060006109d3836109ab565b9050806109f057505060408051600081526020810190915261077f565b606081604051908082528060200260200182016040528015610a1c578160200160208202803883390190505b5090506000610a29610826565b9050600060015b828111610a80576000818152600160205260409020546001600160a01b0388811691161415610a785780848381518110610a6657fe5b60209081029190910101526001909101905b600101610a30565b839550505050505061077f565b661ff973cafa80008211610ad25760405162461bcd60e51b81526004018080602001828103825260268152602001806112a26026913960400191505060405180910390fd5b60008181526005602052604090206001015415610b205760405162461bcd60e51b815260040180806020018281038252602581526020018061127d6025913960400191505060405180910390fd5b610b2a30826107bd565b610b3261122d565b506040805160608082018352338083526020808401878152848601878152600088815260058452878120875181546001600160a01b039182166001600160a01b03199182161783558551600180850191909155855160029094019390935560048054938401815584528951600384027f8a35acfbc15ff81a39ae7d344fd709f28e8600b4aa8c65c6b64bfe7fe36bd19b8101805492909416919092161790915593517f8a35acfbc15ff81a39ae7d344fd709f28e8600b4aa8c65c6b64bfe7fe36bd19c85015591517f8a35acfbc15ff81a39ae7d344fd709f28e8600b4aa8c65c6b64bfe7fe36bd19d909301929092558782526006835290869020819055855191820192909252808501869052828152600c928101929092527f437265617465206f666665720000000000000000000000000000000000000000608083015292519192917fd99e4fad9ad6313b1feb588fa8e605e3a9873172f2024330c35dd2b4041a43869181900360a00190a150505050565b610cb033826110bd565b610d01576040805162461bcd60e51b815260206004820152601e60248201527f546865207573657220646f65736e2774206f776e2074686520746f6b656e0000604482015290519081900360640190fd5b610d0961122d565b50600081815260056020908152604091829020825160608101845281546001600160a01b0316808252600183015493820193909352600290910154928101929092523314610d885760405162461bcd60e51b81526004018080602001828103825260378152602001806112c86037913960400191505060405180910390fd5b600082815260066020526040902054600480549091908110610da657fe5b60009182526020808320600390920290910180546001600160a01b0319908116825560018083018590556002928301859055868552600590935260408420805490911681559182018390550155610dfc826111fc565b604080513360208201528082018490526060808252600c908201527f52656d6f7665206f666665720000000000000000000000000000000000000000608082015290517fd99e4fad9ad6313b1feb588fa8e605e3a9873172f2024330c35dd2b4041a43869181900360a00190a15050565b6040518060400160405280600281526020017f434600000000000000000000000000000000000000000000000000000000000081525081565b6001602052600090815260409020546001600160a01b031681565b6001600160a01b038216610ed457600080fd5b610ede33826110bd565b610ee757600080fd5b610ef233838361112b565b5050565b610efe61122d565b50600081815260056020908152604091829020825160608101845281546001600160a01b031681526001820154928101839052600290910154928101929092523414610f91576040805162461bcd60e51b815260206004820152601860248201527f546865207072696365206973206e6f7420636f72726563740000000000000000604482015290519081900360640190fd5b600082815260066020526040902054600480549091908110610faf57fe5b60009182526020808320600390920290910180546001600160a01b031990811682556001808301859055600292830185905586855260059093526040842080549091168155918201839055015561100682336110dd565b8051611013903384610831565b80516040516001600160a01b03909116903480156108fc02916000818181858888f1935050505015801561104b573d6000803e3d6000fd5b506040805133602082015280820184905260608082526003908201527f4275790000000000000000000000000000000000000000000000000000000000608082015290517fd99e4fad9ad6313b1feb588fa8e605e3a9873172f2024330c35dd2b4041a43869181900360a00190a15050565b6000908152600160205260409020546001600160a01b0391821691161490565b60009182526003602052604090912080546001600160a01b0319166001600160a01b03909216919091179055565b6000908152600360205260409020546001600160a01b0391821691161490565b6001600160a01b03808316600081815260026020908152604080832080546001908101909155868452909152902080546001600160a01b03191690911790558316156111ad576001600160a01b038316600090815260026020908152604080832080546000190190558383526003909152902080546001600160a01b03191690555b604080516001600160a01b0380861682528416602082015280820183905290517fddf252ad1be2c89b69c2b068fc378daa952ba7f163c4a11628f55a4df523b3ef9181900360600190a1505050565b61120633826110bd565b61120f57600080fd5b600090815260036020526040902080546001600160a01b0319169055565b604051806060016040528060006001600160a01b031681526020016000815260200160008152509056fe7472616e7366657246726f6d28616464726573732c616464726573732c75696e7432353629596f752063616e27742073656c6c207477696365207468652073616d65206f666665727320466973682070726963652073686f756c642062652067726561746572207468616e20302e3031596f752073686f756c64206f776e20746865204669736820746f2062652061626c6520746f2072656d6f76652074686973206f66666572a265627a7a723158207f8bdacd8ddedcf468df9ef2dbef4bd537f7d122d88f58a67ae18aab95bb783864736f6c634300050c0032",
  "source": "import \"./KittyOwnership.sol\";\n\npragma solidity ^0.5.0;\n\ncontract KittyMarketPlace is KittyOwnership {\n\n  struct Offer {\n    address payable seller;\n    uint256 price;\n    uint256 tokenId;\n  }\n\n  Offer[] offers;\n\n  mapping (uint256 => Offer) tokenIdToOffer;\n  mapping (uint256 => uint256) tokenIdToOfferId;\n\n\n  event MarketTransaction(string TxType, address owner, uint256 tokenId);\n\n  function getOffer(uint256 _tokenId)\n      public\n      view\n      returns\n  (\n      address seller,\n      uint256 price,\n      uint256 tokenId\n\n  ) {\n      Offer storage offer = tokenIdToOffer[_tokenId];\n      return (\n          offer.seller,\n          offer.price,\n          offer.tokenId\n      );\n  }\n\n\n  function getAllTokenOnSale() public  returns(uint256[] memory listOfToken){\n    uint256 totalOffers = offers.length;\n    \n    if (totalOffers == 0) {\n        return new uint256[](0);\n    } else {\n  \n      uint256[] memory resultOfToken = new uint256[](totalOffers);\n\n      uint256 offerId;\n  \n      for (offerId = 0; offerId < totalOffers; offerId++) {\n        if(offers[offerId].price != 0){\n          resultOfToken[offerId] = offers[offerId].tokenId;\n        }\n      }\n      return resultOfToken;\n    }\n  }\n\n  function setOffer(uint256 _price, uint256 _tokenId)\n    public\n  {\n    /*\n    *   We give the contract the ability to transfer kitties\n    *   As the kitties will be in the market place we need to be able to transfert them\n    *   We are checking if the user is owning the kitty inside the approve function\n    */\n    require(_price > 0.009 ether, \"Fish price should be greater than 0.01\");\n    require(tokenIdToOffer[_tokenId].price == 0, \"You can't sell twice the same offers \");\n\n    approve(address(this), _tokenId);\n\n    Offer memory _offer = Offer({\n      seller: msg.sender,\n      price: _price,\n      tokenId: _tokenId\n    });\n\n    tokenIdToOffer[_tokenId] = _offer;\n\n    uint256 index = offers.push(_offer) - 1;\n\n    tokenIdToOfferId[_tokenId] = index;\n\n    emit MarketTransaction(\"Create offer\", msg.sender, _tokenId);\n  }\n\n  function removeOffer(uint256 _tokenId)\n    public\n  {\n    require(_owns(msg.sender, _tokenId), \"The user doesn't own the token\");\n\n    Offer memory offer = tokenIdToOffer[_tokenId];\n\n    require(offer.seller == msg.sender, \"You should own the Fish to be able to remove this offer\");\n\n    /* we delete the offer info */\n    delete offers[tokenIdToOfferId[_tokenId]];\n\n    /* Remove the offer in the mapping*/\n    delete tokenIdToOffer[_tokenId];\n\n\n    _deleteApproval(_tokenId);\n\n    emit MarketTransaction(\"Remove offer\", msg.sender, _tokenId);\n  }\n\n  function buyKitty(uint256 _tokenId)\n    public\n    payable\n  {\n    Offer memory offer = tokenIdToOffer[_tokenId];\n    require(msg.value == offer.price, \"The price is not correct\");\n\n    /* we delete the offer info */\n    delete offers[tokenIdToOfferId[_tokenId]];\n\n    /* Remove the offer in the mapping*/\n    delete tokenIdToOffer[_tokenId];\n\n    /* TMP REMOVE THIS*/\n    _approve(_tokenId, msg.sender);\n\n\n    transferFrom(offer.seller, msg.sender, _tokenId);\n\n    offer.seller.transfer(msg.value);\n    emit MarketTransaction(\"Buy\", msg.sender, _tokenId);\n  }\n}\n",
  "sourcePath": "/Users/user/Documents/GitHub/CryptoFishFinal/contracts/KittyMarketPlace.sol",
  "compiler": {
    "name": "solc",
    "version": "0.5.12+commit.7709ece9.Emscripten.clang"
  },
  "schemaVersion": "3.4.5",
  "updatedAt": "2022-02-27T07:24:28.715Z",
  "devdoc": {
    "methods": {}
  },
  "userdoc": {
    "methods": {}
  }
}